:02000004080AE8
:1000000000000A08B03F0A080000060006000501CB
:080010000402FE0800000000DC
:04001800C8330A08D7
:1000200009480A4908B5884205D0094A824202D0E7
:10003000121A03F01FF90748074A0021121A03F0A9
:1000400027F9064808BD00BF00000020043B0A084D
:1000500084040020840400205D0600205D0600204A
:1000600070B501F0B3FD0025054E064CA41BA40895
:10007000A54200D170BD56F8043B98470135F7E71B
:10008000DC3A0A08FC3A0A0800F020B808B500F08B
:1000900073F8BDE8084001F051BD01F0E5BA01F088
:1000A000E3BA01F0E9BA000000210C2008B5024AC9
:1000B00001F03EFAFEE700BF5D120A080078B0FAD0
:1000C00080F04009704701230370704710B501208C
:1000D000164C01F0D4FC01F06DFE4FF4164101F016
:1000E0005DFE01233C220221204600F0FBFD20465C
:1000F00000F0F2FC2046012101F074F801222046B4
:10010000002101F067F82046012101F066F8204641
:10011000074901F0A1FB074B20460222196801F0B4
:100120007FFC2046BDE8104000F04EBDB00400202A
:10013000DC330A080400002030B5D0E90243056929
:100140000268AB4225BF52F82450436801335B1B61
:100150002CBF4360C36042F824104368026919440D
:100160008368416001339342836024BF002383602E
:1001700030BD0000000000002DE9F74F01F076F8D7
:10018000B54DB64C2B68DFF82CB3C01A0A2840F2E4
:100190009A8101F06BF828600A2002F079F8B04BE0
:1001A0002060DE68002E00F04981586802F0B8FE39
:1001B0000546304602F0B0FE0146284602F0B8FF80
:1001C00002F054FA0022A74B02F0A8FA9EA3D3E94A
:1001D000002302F0A3FA02F099FDA34EA349306078
:1001E000074602F0A5FFA24902F0EEFEA14DA24B88
:1001F00082462860186802F017FA95A3D3E9002315
:1002000002F0B6FB80465046894602F02FFA0B46B4
:1002100002464946404602F081FA02F077FDDFF8D7
:1002200098920146C9F80000384602F0CDFEDFF88A
:100230008C82DFF844A2C8F80000904800F04CFC23
:1002400000228E48114600F0C5FF8D498B4801F011
:1002500003FBDBF80070002F80F2F2802D2187482D
:1002600001F0FEFA79420A22844801F0FCFA0A22DF
:100270000021824800F0AEFF8249804801F0ECFA8C
:100280002768002F80F2DE802D217C4801F0E8FAFB
:1002900079420A22794801F0E6FA7B49774801F071
:1002A000DBFA206802F0D0F900226E4B02F036FA39
:1002B00065A3D3E9002302F031FA02270B46024678
:1002C00000976E4801F0BBFB70496C4801F0C4FA1E
:1002D0006F4B1B78002B57D000221420114601F0E1
:1002E000DEFB00F0C3FF6B4B14221B680021C01A19
:1002F000CAF80000614800F06DFF67495F4801F0EF
:10030000ABFA4FF47A73DAF800100A22B1FBF3F17A
:100310005A4801F0A8FA1E220021584800F05AFF5E
:100320005E49564801F098FA3A463168534801F060
:1003300077FB5B49514801F08FFA3A4629684F48EC
:1003400001F06EFB57494D4801F086FA2822002142
:100350004A4800F03FFF5449484801F07DFA3A46C8
:10036000D9F80010454801F05BFB322200214348D8
:1003700000F030FF4D49414801F06EFA3A46D8F896
:1003800000103E4801F04CFB494B1B78002B00F05D
:10039000978000221421104601F081FB14220021D5
:1003A000364800F017FF3C49344801F055FA4FF445
:1003B0007A73DAF800100A22B1FBF3F12F4801F04A
:1003C00052FA1E2200212D4800F004FF33492B4829
:1003D00001F042FA02223168284801F021FB30493D
:1003E000264801F039FA02222968244801F018FB56
:1003F0002C49224801F030FA282200211F4800F041
:10040000E9FE29491D4801F027FA0222D9F8001017
:100410001A4801F005FB32220021184800F0DAFEEC
:100420002249164801F018FA0222D8F800101348A1
:1004300001F0F6FA114800F0C7FBFEE70020BFE626
:10044000394610E7394624E76666666666661A40EE
:100450000000000040774B41E8040020AC0400207D
:10046000840400200000303FEC04002000004041E4
:1004700000007A4404000020D4040020B0040020CE
:10048000EC330A08F5330A08FA330A08FD330A0880
:10049000D9040020E404002000340A0807340A08C4
:1004A0000D340A0811340A0814340A081A340A08E8
:1004B000D804002000000020DC040020E00400201C
:1004C000254800F081FB254E254D3378BFF35B8F27
:1004D00013F0010F09D13046FFF7F0FD28B100F00D
:1004E000C5FE28603046FFF7EEFD00F0BFFE2B682A
:1004F000C01AB0F57A7F0AD300F0B8FE286030B198
:10050000184B1B781BB921681748FFF715FE2168A7
:10051000DBF8003099420EDD144D2B78C3B9124838
:10052000C0E90133C360FFF707FE01232B7000F021
:100530009DFE0F4B18602268DBF800309A4207DA04
:100540000A4B1A7822B100221A700122054B1A7048
:1005500003B0BDE8F08F00BFB0040020A404002069
:10056000A8040020D804002084040020D90400201E
:10057000E404002038B5002448F6A043114D124889
:10058000C5E9034301F070F82346C5E901440E4A6A
:1005900028602968CC5004339342FAD14FF0FF31E0
:1005A0000A4800F083FA0A4B0A4A03201C609C8028
:1005B0009C719A6000F0C4FFBDE838400021012022
:1005C00000F0CEBF8404002080320200B00400207E
:1005D000980400200000FFFFF0B5457EBDF81440F0
:1005E000022D45D0032D7CD0012D49D1D243058960
:1005F0002A4412B2002AC0F2C180B0F908509542D4
:1006000040F3BC800029BEBF5B1800211BB2B0F9CB
:100610000A00CD188542C4BF431A1BB2002B40F319
:10062000AD80C1F3C400644E02EBC01211F00701AB
:10063000DBB206EB020064D0C1F10807FFB25F4DE8
:10064000BB42ED5D80F0B0804FF0FF0CA7EB030ED6
:100650004CFA0EFC012C0CEA050547D0022C77D091
:10066000002C40F08B8016F802C02CEA050541E012
:10067000D24345892A44CD18018912B2491B09B2D7
:10068000002A7BDBB0F90A50954277DD0029BEBF16
:100690005B1800211BB2B0F90800CD188542C4BF19
:1006A000431A1BB2002B69DDD01001EBC011424888
:1006B000012C084402F007014FF0010202FA01F296
:1006C000D2B268D0022C5DD0002C57D1D243034463
:1006D000D2B2834252D010F8014B144000F8014CC2
:1006E000F7E7CD184189491B09B283E716F802C024
:1006F00045EA0C05BB42B55440D308390B44DBB284
:100700008030072B18D9022C00F1800225D1194620
:1007100012F8805C0839ED43C9B2072902F8805C01
:1007200002F18002F4D8A3F10802C2F3C40201323C
:1007300000EBC21003F0070303B3214A012CD35C82
:1007400019D0022C1BD0CCB9027822EA030314E0A2
:1007500016F802C085EA0C05CCE7012C0CBFFF257A
:10076000002519460839C9B2072902F8805C02F150
:100770008002F7D8D7E7027813430370F0BD027800
:100780005340FAE703449842F8D010F8014B544024
:1007900000F8014CF7E703448342EFD010F8014B17
:1007A000144300F8014CF7E7012C9FD0022CCFD066
:1007B000002CA2D157E700BF180000201000002035
:1007C00008000020F0B5457EBDF81440022D3FD052
:1007D000032D00F08180012D42D1D5180289521BD2
:1007E00012B20029C0F2D780B0F90A508D4240F30E
:1007F000D280002ABCBF9B180022B0F90850B8BFB5
:100800001BB2D018A842C4BFAD1A2BB2002B40F3C4
:10081000C280CE1002EBC612644E012C164401F0C9
:1008200007024FF0010101FA02F1C9B262D0022CB5
:1008300057D0002C40F0AF80C9433344C9B29E4228
:1008400000F0A98016F8014B0C4006F8014CF6E7C1
:10085000C94305892944D518428909B2521B12B2ED
:100860000029C0F29880B0F908508D4240F393807F
:10087000002ABEBF9B1800221BB2B0F90A00D5188F
:100880008542C4BF801A03B2002B40F38480C2F3B8
:10089000C400464F01EBC01112F00702DBB207EBB8
:1008A00001053BD0C2F10806F6B24148B342805D73
:1008B00075D24FF0FF0CA6EB030E4CFA0EFC012C88
:1008C0000CEA00001FD0022C4FD0002C63D117F887
:1008D00001C02CEA00001AE0C9434589294409B245
:1008E0007FE733449E4256D016F8014B4C4006F841
:1008F000014CF7E733449E424DD016F8014B0C43B0
:1009000006F8014CF7E717F801C040EA0C00B342C3
:10091000785440D3083A1344DBB28035072B18D9FA
:10092000022C05F1800225D1194612F8800C0839F5
:10093000C043C9B2072902F8800C02F18002F4D842
:10094000A3F10802C2F3C402013205EBC21503F0A1
:10095000070303B3174A012CD35C19D0022C1BD018
:10096000CCB92A7822EA030314E017F801C080EA20
:100970000C00CCE7012C0CBFFF20002019460839E1
:10098000C9B2072902F8800C02F18002F7D8D7E734
:100990002A7813432B70F0BD2A785340FAE7012CD4
:1009A000B1D0022CE1D0002CB4D190E71800002087
:1009B000100000200800002070470000F8B50D1E50
:1009C000064614461F464DDB00F011FCA84249DDE7
:1009D000002C47DB304600F00DFCA04242DD3046E3
:1009E00000F003FC02281ED0032825D0012804D1E2
:1009F000E443328922442C4615B2012F22D0022F23
:100A000031D07FBB21460122002CB8BFE11D1E4B17
:100A100041F3CF0104F0070405EBC115A2405C5D72
:100A200024EA02041DE0E4433189728901394D1B37
:100A300014442DB224B2E0E77389013B5B1B2546C9
:100A40001CB2DAE72146002C04F00702B8BFE11D12
:100A500001240D4B41F3CF0105EBC11594405A5DC4
:100A600014435C55F8BD21460122002CB8BFE11D9E
:100A7000054B41F3CF0105EBC11504F0070402FA61
:100A800004F45A5D5440ECE71800002010B5044609
:100A9000242101F083FC204610BD0000024B986821
:100AA00008B100F0F3BB7047F404002038B50446E9
:100AB0000D464022802100F0C5FA064B20462360F7
:100AC000FF2384F8213063774FF6FF7384F82050BA
:100AD000E38338BD28340A084FF4806200210148BE
:100AE00002F0D6BB1800002038B50B4D2978BFF3B3
:100AF0005B8F11F001040DD12846FFF7DFFA48B1F2
:100B00002146064800F0CBFD2846FFF7DCFA0448F2
:100B100002F0AAFB014838BDF0040020F4040020D4
:100B20009D0A0A0810B590F822300C4633B1FFF741
:100B3000DBFF2146BDE8104000F050BE0B46BDE88B
:100B40001040817F0122407F01F0B9BB38B590F998
:100B50001D30044601330D461DD090F921000121BE
:100B600080B201F07CFB94F91F00002180B201F0FB
:100B700076FB94F92100002180B201F070FB294638
:100B80002046FFF7CFFF94F921000121BDE838404E
:100B900080B201F064BB01F0DDFB94F91B1001F0A1
:100BA00031FA01F0D7FB036800219B68984701F0F8
:100BB000D1FB036829469B68984701F0CBFBBDE851
:100BC000384001F026BA00002DE9F0470446002124
:100BD000FFF7BCFF10212046FFF7B8FF4021204659
:100BE000FFF7B4FF94F91D30B02601334FF08005B4
:100BF000DFF8EC803DD031462046FFF7A7FF022109
:100C00002046FFF7A3FF10212046A5F1800AFFF739
:100C10009DFF94F92100012180B201F020FB94F99D
:100C20001F00012180B201F01AFB94F9210000217C
:100C300080B201F014FB102708EB0A09204619F8CE
:100C4000011B013FFFF76EFF17F0FF07F6D194F984
:100C5000210001210AF1100A80B201F000FB554584
:100C6000D7D180350136B5F5906FF6B2C3D1BDE866
:100C7000F08731462046FFF769FF02212046FFF743
:100C800065FF10212046A5F18009FFF75FFF01F005
:100C900061FB94F91B1001F0B5F901F05BFB0368EF
:100CA00040219B689847102708EB090A01F052FB86
:100CB00003681AF8011B9B68013F984717F0FF076C
:100CC000F4D101F047FB09F1100901F0A2F9A9459F
:100CD000DDD180350136B5F5906FF6B2C9D1C6E7E2
:100CE0001800002038B590F91D30044601330D4638
:100CF0000177C27600F0C98090F91F00012180B20F
:100D000001F09CFA94F92100012180B201F096FAD9
:100D100094F82230002B00F0A68094F921000121E4
:100D200080B201F09CFAFFF7DFFE012100F0D4FC55
:100D3000FFF7DAFE102100F02DFDFFF7D5FE0021B0
:100D400000F0D8FCFFF7D0FE00F0B8FC94F92000CA
:100D5000012180B201F072FA94F92000012180B2E1
:100D600001F07DFA012000F087FE94F920000021B7
:100D700080B201F074FA0A2000F07EFE94F920009F
:100D8000012180B201F06BFA2046AE21FFF7DEFEB2
:100D90002046D521FFF7DAFE20468021FFF7D6FE58
:100DA0002046A821FFF7D2FE20463F21FFF7CEFEC6
:100DB0002046D321FFF7CAFE20460021FFF7C6FEDA
:100DC00020464021FFF7C2FE8D212046FFF7BEFEE0
:100DD000012D0CBF102114212046FFF7B7FE20463D
:100DE0002021FFF7B3FE20460021FFF7AFFE20468B
:100DF000A121FFF7ABFE2046C821FFF7A7FE204642
:100E0000DA21FFF7A3FE20461221FFF79FFE812182
:100E10002046FFF79BFE012D0CBF9F21CF212046CE
:100E2000FFF794FED9212046FFF790FE012D0CBF5D
:100E30002221F1212046FFF789FE2046DB21FFF722
:100E400085FE20464021FFF781FE2046A421FFF7C2
:100E50007DFE2046A621FFF779FE2046BDE83840FA
:100E6000AF21FFF773BE94F91D00012180B201F09C
:100E7000E5F994F91E00012180B201F0DFF994F840
:100E80002230002B3FF462AF47E701F063FA01F034
:100E9000AFF85BE72DE9F04F1F4685B0BDF938800C
:100EA000A7EB010AA8EB0209B9F1000FB8BFC9F11D
:100EB0000009BAF1000FB8BFCAF1000AD145834654
:100EC0000C461646BDF83C3004DD3A4634464746EB
:100ED0000E469046BC4205DD3246464690462246C6
:100EE0003C4617463A1B91B20091A8EB0601002937
:100EF000B8BF4942C2F3C035019111B24645B4BFF3
:100F000001224FF0FF320D446D100292BC421CDCF6
:100F1000DBF80020D145D2F81080C7BF3146224609
:100F20003246214603935846C047019A039BAD1AA7
:100F3000A9B22DB2002D05DA029A1644009A36B2F3
:100F400055182DB2013424B2E0E705B0BDE8F08FAA
:100F50002DE9F347044616468A461D46BDF82C8007
:100F60000768BDF92890CDF80080FF69B84723686D
:100F700009F1FF32CDF80080324451462046DF6946
:100F800012B22B46B8472368CDF80080324651464E
:100F900020469F694B46B8472368013DCDF828801D
:100FA00005EB0A019D6932464B462046AC4609B224
:100FB00002B0BDE8F047604737B5013BBDF81850B7
:100FC000134404681BB2009301950B466469A04763
:100FD00003B030BD37B5BDF818500468CDE9002521
:100FE000013B0B4464691BB2A04703B030BD2DE93F
:100FF000F347054616460C46BDF928A0BDF82C90CF
:10100000CF18BC420CDA2B68CDF800902146D3F8FB
:1010100018803246534628460134C04724B2F0E7D0
:1010200002B0BDE8F08713B50191B0F90E10026867
:101030000091546A0022B0F90C301146A04702B06A
:1010400010BD70474281C2814FF0FF3230B542611E
:1010500000240122044D4460056001818181046106
:101060000283827630BD00BF5C390A082DE9F04F5B
:101070008DB00591BDF8581082460691BDF85C1000
:101080009DF860600791B0F90C10059881424FDD22
:10109000BAF90E1091424BDD062101FB0604002C2B
:1010A00046DD02EBC604002C42DD002503EB830382
:1010B0000B9393B208910493052D08BF00234FF0C2
:1010C00000081FBF294B0B9A5B199B5CACB20393C2
:1010D000B3B20A93BDF81430049F06FB04321C44DB
:1010E00012B209920FFA86F924B2039BDB072DD5C1
:1010F000012EDAF800301ED1049AD3F810B0069B06
:1011000042442146504612B2D847039B08F10108D9
:101110005B0803930A9BB8F1080F1F44BFB2E4D1E8
:10112000089B0135013B13F0FF036DB20893C3D157
:101130000DB0BDE8F08F069ACDE900925046D3F885
:1011400024B009994B463AB2D847DEE7DDE90623D9
:101150009342DAD0012EDAF8003005D1049AD3F8A0
:1011600010B04244079BCCE7079AE5E758340A08D9
:1011700030B50A2904460B4685B007D1027E638A42
:1011800003EBC20363820023238220E00D291ED0DB
:10119000027E0292C28A0192828A0092B0F91220E3
:1011A000B0F91010FFF762FF217E238A01EB4100A6
:1011B00003EB4003A07E1BB20A46238238B16FF0D6
:1011C0000505B4F90C0005FB01018B42D7DC0120B9
:1011D00005B030BD018242827047012938BF01212C
:1011E00001767047C18281827047407E7047B0F9B6
:1011F0000C007047B0F90E007047000008B5024BB4
:101200001B685B68019308BDB001060808B5024B76
:101210001B689B68019308BDB001060808B5024B26
:101220001B68DB68019308BDB001060808B5024BD6
:101230001B681B69019308BDB001060808B5024B85
:101240001B681B6B019308BDB001060808B5024B73
:101250001B685B68019308BD9C01060808B5024B3A
:101260001B68DB68019308BD9C01060808B5024BAA
:101270001B685B69019308BD9C01060808B5024B19
:101280001B685B6C019308BDD001060808B5024BD2
:101290001B689B6C019308BDD001060808B5024B82
:1012A0001B68DB6C019308BDD001060808B5024B32
:1012B0001B685B6D019308BDD001060808B5024BA1
:1012C0001B689B69019308BDC401060808B5024B61
:1012D0001B685B6A019308BDC401060808B5024B90
:1012E0001B689B6A019308BDC401060808B5024B40
:1012F0001B68DB6A019308BDC401060808B5024BF0
:101300001B681B6B019308BDC401060808B5024B9E
:101310001B685B6B019308BDC401060808B5024B4E
:101320001B689B6B019308BDC401060808B5024BFE
:101330001B681B6C019308BDC401060808B5024B6D
:101340001B68DB6C019308BDAC01060808B5024BB5
:101350001B689B6D019308BDAC01060808B5024BE4
:101360001B68DB6D019308BDAC01060808B5024B94
:101370001B681B6E019308BDAC01060808B5024B43
:101380001B685B6E019308BDAC01060808B5024BF3
:101390001B689B6E019308BDAC01060808B5024BA3
:1013A0001B68DB6E019308BDAC01060808B5024B53
:1013B0001B681B6F019308BDAC01060808B5024B02
:1013C0001B685B6F019308BDAC01060808B5034BB1
:1013D0001B68D3F88030019308BD0000AC010608FB
:1013E00008B5024B1B681B68019308BDB4010608D1
:1013F00008B5024B1B689B68019308BDB401060841
:1014000008B5024B1B68DB68019308BDB4010608F0
:1014100008B5024B1B681B69019308BDB40106089F
:1014200008B5024B1B685B69019308BDB40106084F
:1014300008B5024B1B68DB69019308BDB4010608BF
:1014400008B5024B1B681B6A019308BDB40106086E
:1014500008B5024B1B685B6A019308BDB40106081E
:1014600008B5024B1B681B68019308BDD80106082C
:1014700008B5024B1B685B68019308BDD8010608DC
:1014800008B5024B1B681B69019308BDD80106080B
:1014900008B5024B1B685B69019308BDD8010608BB
:1014A00008B5024B1B689B69019308BDD80106086B
:1014B00008B5024B1B68DB69019308BDD80106081B
:1014C00008B5024B1B681B6A019308BDD8010608CA
:1014D00008B5024B1B689B6C019308BDC001060850
:1014E00008B5024B1B685B68019308BDA8010208A0
:1014F00008B5024B1B689B68019308BDA801020850
:1015000008B5024B1B68DB68019308BDA8010208FF
:1015100008B5024B1B689B69019308BDA80102082E
:1015200008B5024B1B68DB69019308BDA8010208DE
:1015300008B5024B1B685B6B019308BDA80102084C
:1015400008B5024B1B685B68019308BDA40106083F
:1015500008B5024B1B685B69019308BDA40106082E
:1015600008B5024B1B68DB6A019308BDA40106089D
:1015700008B5034B1B68D3F89030019308BD0000F9
:10158000A401060808B5034B1B68D3F89C300193EF
:1015900008BD0000A401060808B5024B1B685B6883
:1015A000019308BDC801060808B5024B1B689B687B
:1015B000019308BDC801060808B5024B1B68DB682B
:1015C000019308BDC801060808B5024B1B681B69DA
:1015D000019308BDC801060808B5024B1B685B698A
:1015E000019308BDC801060808B5024B1B689B693A
:1015F000019308BDC801060808B5024B1B68DB69EA
:10160000019308BDC801060808B5024B1B681B6A98
:10161000019308BDC801060808B5024B1B681B6B87
:10162000019308BDC801060808B5024B1B685B6B37
:10163000019308BDC801060808B5024B1B681B6C66
:10164000019308BDC801060808B5024B1B685B6C16
:10165000019308BDC801060808B5024B1B68DB6B87
:10166000019308BDCC01060808B5024B1B681B6836
:10167000019308BDA001060808B5024B1B685B6812
:10168000019308BDA001060808B5024B1B685B6CFE
:10169000019308BDA00106088068FFF707BE70B57A
:1016A000002604460D4640F8086FFFF7E7FD284680
:1016B0002570FFF7BDFE2046666070BD10B504467C
:1016C0008068FFF7EBFD20784FF6FF71FFF788FE8B
:1016D0002046FFF7E1FF10BD38B504460D4680688F
:1016E000FFF7DCFD20782946FFF782FE2046FFF752
:1016F000D3FF38BD38B504460D468068FFF7CEFDF0
:1017000020782946FFF77CFE2046FFF7C5FF38BD4D
:1017100030B50024400818601868E5B2884206D940
:101720000134082C02D040081860F5E70725024B69
:101730005B5D137030BD00BF8C390A08F0B5002521
:10174000044689B0806802FB01F60295FFF7A6FD0A
:101750002946142203A8277801F09AFD0B232A4674
:10176000384603A9ADF80C30FFF772FE02AB0DF15D
:101770000702314604988DF80750FFF7C9FF9DF81E
:1017800007102078FFF744FE2046FFF785FF0298F8
:1017900009B0F0BD38B5044680680D46FFF77EFD00
:1017A000616899B100230C4A12F8010B854202D0FE
:1017B0000133082BF8D10133DBB201222046D94096
:1017C000FFF7BCFF2046FFF767FF38BD29462078AA
:1017D000FFF71EFEF6E700BF8C390A0808B500784F
:1017E000FFF71EFEC0B208BD02220020044B1A60A3
:1017F000044B054A1860988098719A60FFF7A0BE64
:101800000C050020000500200000FFFFF8B506468B
:101810000D4600248F18BD420CD0336830469B68BB
:1018200015F8011B9847031E01DB1C44F3E7002C4D
:1018300008BF1C462046F8BD70B505460C46084654
:1018400049B101F051FD2B68024621462846BDE80A
:101850007040DB68184770BD08B5FFF7EDFF08BDA5
:1018600003689B6818470023012A98BF0A2230B5F5
:101870008BB00C468DF8243009A92546B4FBF2F450
:1018800004FB1253DBB2092B94BF30333733DBB286
:10189000AA4201F8013DF0D9FFF7CEFF0BB030BDF1
:1018A0002DE9F74F05461946104692461F469DF80A
:1018B000306001F0CDF940B150492846FFF7BCFF38
:1018C0000446204603B0BDE8F08F27F000444FF0F7
:1018D000FF32504621464A4B01F0BAF948B94FF061
:1018E000FF3250462146464B01F094F908B945496C
:1018F000E3E74FF0604250463946434B01F09EF912
:1019000008B14249D9E74FF0604250463946404B52
:1019100001F076F90028F4D1002200235046394620
:1019200001F06EF9044630B12D212846FFF798FFEB
:10193000044607F100474FF0000B00204FF000086D
:101940003449DFF8D8905FFA8BF39E4206D94246BD
:101950004B4601F00DF80BF1010BF4E73B46524604
:1019600000F026FD8946804601F0B0F9074600F0F8
:101970005BFE02460B464046494600F017FD0A2230
:101980008046894628463946FFF76DFF044426B154
:1019900028462149FFF750FF04444FF0000ADFF8C2
:1019A0007CB0013EF6B2FF2E8BD052465B464046DD
:1019B000494600F0B3FE8046894601F05FF9071EF4
:1019C00019DA2D212846FFF74BFF034679420A22F8
:1019D00028460193FFF747FF019B034438461C4408
:1019E00000F032FE02460B464046494600F0DEFC5F
:1019F00080468946D5E739460023E8E794390A0846
:101A0000FFFFEF7F98390A08FFFFEF419C390A0872
:101A1000FFFFEFC10000E03FA0390A0800002440AA
:101A200037B505461446084600F020FEE4B20246EB
:101A30000B4628460094FFF733FF03B030BD9DF8F6
:101A400000100091FFF72CBF002340681A4619468A
:101A5000FFF7C2BD014B024A1A6070471005002013
:101A6000A2390A08024B1A68024B1A60704700BF7D
:101A700018040020140500200021FFF769BD10B5EF
:101A80000446FFF745FD844208D01CB1BDE8104074
:101A9000FFF72EBDBDE81040FFF732BD10BD70B599
:101AA00005460E461446FFF733FD50B144EA0624BE
:101AB00044EA0540FFF714FDBDE87040E720FFF75A
:101AC0002FBD70BD0022014B9A60704718050020A1
:101AD000014B1860704700BF1C04002008B5134B71
:101AE00043B100F067F903681B699847002801DDDE
:101AF000AFF300800E4B43B100F0FEF903681B69A1
:101B00009847002801DDAFF300800A4B0BB1AFF31B
:101B10000080094B43B100F079F903681B699847CD
:101B2000002801DDAFF3008008BD00BF0000000009
:101B300000000000000000000000000008B5FFF7F2
:101B4000CDFFFFF793FB014B186008BD9005002007
:101B50000548064A08B5121A054901F08BFB054BEA
:101B6000054A1A6008BD00BF004002400440024020
:101B7000003B0A08004002401E1C279A002307B5BC
:101B80001A466FF077010093FFF7FCFC03B05DF895
:101B900004FB000007B543880A2B08D0502B0BD15B
:101BA000094B1B684BB103B05DF804EB1847FFF716
:101BB000E5FF03B05DF804FB00231A466FF07701E0
:101BC0000093FFF7DFFCF4E72C050020002110B59F
:101BD0001148FFF759FD114B1A68114B9A420CBF7F
:101BE000012200220F4B1A7001D0FFF7B1FFFFF75F
:101BF0002DFB044601F054FB0B4B13B12046AFF311
:101C0000008000210848FFF727FDBDE810400021B3
:101C10000648FFF7ADBC00BFD11A0A0800400240D9
:101C20001E1C279A2805002000000000951B0A08AA
:101C3000704710B50446182100F0B0FB204610BDD7
:101C4000F8B50E46002400F10807051D17F8011D20
:101C50000A223046FFF707FEAF42044401D1204676
:101C6000F8BD002CF2D02E213046FFF7F9FD0444D8
:101C7000ECE7000010B50446044B1122002140F8A7
:101C8000043B01F005FB204610BD00BFCC390A081B
:101C90000346074A10B543F8042B01F1100251F82E
:101CA000044B914243F8044BF9D10A781A7010BDE5
:101CB000CC390A08024AC0E90021042202757047A3
:101CC000CC390A0810B59DF8084044EA03240423DF
:101CD00044EA024444EA01644460037510BD000014
:101CE00037B5044D05609DF818500095FFF7EAFFE1
:101CF00003B030BDCC390A08417470477047704753
:101D000008B50021007CFFF7CBFB40EAE07008BD7E
:101D100008B50121007CFFF7C3FB40EAE07008BD75
:101D200008B5007CFFF7B4FB20EAE07008BD08B5F9
:101D3000007CFFF7A5FB20EAE07008BD38B504463B
:101D4000007C0D46FFF7A4FB002801DC607C28B175
:101D50002946207CFFF7ACFB20EAE07038BD007C10
:101D6000FFF7AEBB10B50446142100F017FB204668
:101D700010BD704710B54FF47A7304460846002131
:101D8000C4E90113044B20742360012311466374DA
:101D9000FFF766FB204610BDE0390A080022007CF0
:101DA000FFF766BB10B504461422002101F070FA5B
:101DB000204610BD30B50E4D87B001A8FFF7F2FFE9
:101DC0002978BFF35B8F11F001040ED12846FEF78E
:101DD00075F950B1214601AA0648FFF7CBFF284606
:101DE000FEF771F9044801F03FFA024807B030BD30
:101DF0003005002038050020FD1C0A0810B50446F7
:101E00001422002101F044FA204610BD10B50E4CFA
:101E100086B001A8FFF7F2FF2378BFF35B8FDB07E3
:101E20000ED42046FEF74AF950B1012101AA074815
:101E3000FFF7A0FF2046FEF746F9054801F014FA27
:101E4000024806B010BD00BF340500204C0500203C
:101E5000731D0A08704741747047704708B5007CCD
:101E6000FFF764FA20EAE07008BD08B5007CFFF7D0
:101E700035FA20EAE07008BD08B5007CFFF73EFAAD
:101E800040EAE07008BD08B5007CFFF72FFA40EA91
:101E9000E07008BD007CFFF739BA70B5467C044697
:101EA0000D462EB12946207CBDE87040FFF70EBAE2
:101EB000007CFFF73BFA0028F4DC304670BD10B51B
:101EC0000446142100F06AFA204610BD4FF0000CC1
:101ED00010B50446084611464FF47A72C4E901C2AF
:101EE000044A20742260012262741A46FFF7E6F960
:101EF000204610BD103A0A08F8B5194C26684EB9AC
:101F00008420FEF7CAF8054618B18422314601F054
:101F1000BFF92560134D2F684FB98420FEF7BDF837
:101F2000064618B18422394601F0B2F92E600E4FF0
:101F30003978BFF35B8F11F001060FD13846FEF7F9
:101F4000BDF858B131462B6822680848FFF7BEFF3C
:101F50003846FEF7B8F8064801F086F90348F8BDA0
:101F60006405002068050020600500206C05002045
:101F70005B1E0A087047F8B5064615460C468F18D2
:101F8000BC4206D0336830469B6814F8011B984762
:101F9000F6E72846F8BD0022007CFFF7E7B90021EC
:101FA000007CFFF7EBB90021007CFFF7EFB90021BF
:101FB000007CFFF7F3B90021007CFFF7F7B910B5FB
:101FC0000446142100F0EAF9204610BD10B54FF484
:101FD0007A73044608460021C4E90113034B1146F5
:101FE00023602074FFF7F2F9204610BD403A0A083A
:101FF0000023007C1A461946FFF7A0B90022007C96
:10200000FFF7A4B9C9B2FFF7F9BF0022007CFFF7C0
:10201000A5B90121FFF7F9BF002240681146FFF77B
:10202000D3BAF0B5154689B011220E4604460021F8
:1020300003A801F02DF9284601F056F9002781B2D6
:1020400073682846009703AAFFF742FA30B1394671
:102050002046FFF72FFE204609B0F0BD204603A919
:10206000FFF716FEF7E7002240681146FFF7CCBAEB
:10207000002240681146FFF7D7BA00224068FFF7F8
:10208000CBBA0022406881F00101FFF7B5BA002306
:1020900040681A461946FFF7A7BA00224068114661
:1020A000FFF782BA002202214068FFF785BA0023B9
:1020B00040681A46FFF770BA0422024B5A60024A7F
:1020C0001A60704780050020683A0A0800234068BB
:1020D0001A46FFF761BA002202214068FFF76CBA86
:1020E000002240681146FFF75FBA0022406811469F
:1020F000FFF76ABA002340681A461946FFF76CBA20
:10210000002340681A461946FFF76EBA002140685E
:10211000FFF792BA00214068FFF796BA00224068A4
:1021200081F00101FFF768BA00224068FFF774BA36
:10213000002240681146FFF777BA00224068114636
:10214000FFF762BA70B515468EB0044608A8FFF7CF
:1021500091FD1122002103A801F09AF800262846DB
:1021600001F0C2F80A4B009681B25B68284603AAC8
:10217000FFF7AEF930B131462046FFF79BFD204610
:102180000EB070BD204603A9FFF782FDF7E700BF40
:1021900080050020024B034A1A6000225A607047F3
:1021A00088050020A43A0A08024B986808B1FFF796
:1021B0006DB87047F4040020172870B5044601D9A3
:1021C000002070BDA0F10D03022B0BD9012824D8EB
:1021D00000F0C0F80021007CFFF7F0F880F001006B
:1021E000C0B2EEE7124E3178BFF35B8F11F00105FC
:1021F0000DD13046FDF762FF48B129460D48FFF783
:102200004EFA3046FDF75FFF0B4801F02DF8094B01
:102210001878FFF715F90028D2D1123C012C05D807
:10222000FFF76AFE007CFFF779F8D7E70120C8E7DF
:10223000F0040020F4040020A9210A08172838B56A
:1022400004460D460AD8FF2908D0FFF7B5FF28B18C
:1022500029462046BDE83840FEF7D8BF38BD38B51E
:1022600004460D46FEF7DAFFFF2810D0062804D8F2
:102270004D2323FA00F0C30709D42046FFF79CFF43
:1022800028B129462046BDE83840FEF7CFBF38BD0B
:1022900010B5044609289CBF0A34A4B22046FFF7B3
:1022A0008BFF50B103212046FEF7A8FF032804D17D
:1022B0002046BDE81040FEF7C1BF002010BD2DE94B
:1022C000F04190461F46002406460D46B8F1000F27
:1022D00013D147FA04F1304601F00101FFF7BFFFC7
:1022E00001212846FFF7BBFF013400212846FFF7F4
:1022F000B6FF082CEAD1BDE8F081C4F1070147FA26
:1023000001F1E8E7002307B51A4619460093034890
:10231000FFF7E6FC03B05DF804FB00BF9405002066
:1023200070470000002370B5202543801423084E19
:1023300004460380314685600561284600F030F888
:1023400031466060284600F02BF8E060204670BD02
:10235000D83A0A0830B50E4D87B02978BFF35B8FA5
:1023600011F0010411D12846FDF7A8FE68B101A8BB
:10237000FFF7D8FF214601AA0648FFF727FE2846A7
:10238000FDF7A1FE044800F06FFF024807B030BD22
:10239000AC050020B005002021230A08FDF781BE0E
:1023A000FDF77DBE81F0004102E000BF83F00043F5
:1023B00030B54FEA41044FEA430594EA050F08BFE0
:1023C00090EA020F1FBF54EA000C55EA020C7FEAA4
:1023D000645C7FEA655C00F0E2804FEA5454D4EB21
:1023E0005555B8BF6D420CDD2C4480EA020281EAEB
:1023F000030382EA000083EA010180EA020281EA23
:102400000303362D88BF30BD11F0004F4FEA013174
:102410004FF4801C4CEA113102D0404261EB410183
:1024200013F0004F4FEA03334CEA133302D0524209
:1024300063EB430394EA050F00F0A780A4F10104C5
:10244000D5F1200E0DDB02FA0EFC22FA05F28018FF
:1024500041F1000103FA0EF2801843FA05F35941E5
:102460000EE0A5F120050EF1200E012A03FA0EFC64
:1024700028BF4CF0020C43FA05F3C01851EBE3718E
:1024800001F0004507D54FF0000EDCF1000C7EEBAB
:1024900000006EEB0101B1F5801F1BD3B1F5001FE9
:1024A0000CD349085FEA30004FEA3C0C04F1010408
:1024B0004FEA445212F5800F80F09A80BCF1004F31
:1024C00008BF5FEA500C50F1000041EB045141EAB3
:1024D000050130BD5FEA4C0C404141EB0101013C7C
:1024E00028BFB1F5801FE9D291F0000F04BF01466B
:1024F0000020B1FA81F308BF2033A3F10B03B3F13D
:1025000020020CDA0C3208DD02F1140CC2F10C02CC
:1025100001FA0CF021FA02F10CE002F11402D8BF2A
:10252000C2F1200C01FA02F120FA0CFCDCBF41EAF6
:102530000C019040E41AA2BF01EB0451294330BDC5
:102540006FEA04041F3C1CDA0C340EDC04F11404A2
:10255000C4F1200220FA04F001FA02F340EA030079
:1025600021FA04F345EA030130BDC4F10C04C4F1BF
:10257000200220FA02F001FA04F340EA030029469F
:1025800030BD21FA04F0294630BD94F0000F83F4E9
:10259000801306BF81F480110134013D4EE77FEACC
:1025A000645C18BF7FEA655C29D094EA050F08BF18
:1025B00090EA020F05D054EA000C04BF19461046F9
:1025C00030BD91EA030F1EBF0021002030BD5FEA3D
:1025D000545C05D14000494128BF41F0004130BD65
:1025E00014F580043CBF01F5801130BD01F00045B9
:1025F00045F0FE4141F470014FF0000030BD7FEA2C
:10260000645C1ABF194610467FEA655C1CBF0B4626
:10261000024650EA013406BF52EA033591EA030F3D
:1026200041F4002130BD00BF90F0000F04BF002135
:10263000704730B54FF4806404F132044FF0000568
:102640004FF0000150E700BF90F0000F04BF0021E1
:10265000704730B54FF4806404F1320410F0004547
:1026600048BF40424FF000013EE700BF42004FEA42
:10267000E2014FEA31014FEA02701FBF12F07F43BF
:1026800093F07F4F81F06051704732F07F4208BF76
:10269000704793F07F4F04BF41F40021704730B57D
:1026A0004FF4607401F0004521F000411CE700BFC9
:1026B00050EA010208BF704730B54FF000050AE04C
:1026C00050EA010208BF704730B511F0004502D54D
:1026D000404261EB41014FF4806404F132045FEA4F
:1026E000915C3FF4D8AE4FF003025FEADC0C18BFF8
:1026F00003325FEADC0C18BF033202EBDC02C2F1EA
:10270000200300FA03FC20FA02F001FA03FE40EA7B
:102710000E0021FA02F11444BDE600BF70B54FF07F
:10272000FF0C4CF4E06C1CEA11541DBF1CEA13555D
:1027300094EA0C0F95EA0C0F00F0DEF82C4481EAC5
:10274000030621EA4C5123EA4C5350EA013518BFE5
:1027500052EA033541F4801143F4801338D0A0FBD2
:1027600002CE4FF00005E1FB02E506F00042E0FB7F
:1027700003E54FF00006E1FB03569CF0000F18BF85
:102780004EF0010EA4F1FF04B6F5007F64F540742D
:1027900004D25FEA4E0E6D4146EB060642EAC621C0
:1027A00041EA55514FEAC52040EA5E504FEACE2E2D
:1027B000B4F1FD0C88BFBCF5E06F1ED8BEF1004F30
:1027C00008BF5FEA500E50F1000041EB045170BDAC
:1027D00006F0004646EA010140EA020081EA0301F0
:1027E000B4EB5C04C2BFD4EB0C0541EA045170BDEC
:1027F00041F480114FF0000E013C00F3AB8014F166
:10280000360FDEBF002001F0004170BDC4F10004AE
:10281000203C35DA0C341BDC04F11404C4F120052F
:1028200000FA05F320FA04F001FA05F240EA02008A
:1028300001F0004221F0004110EBD37021FA04F6C0
:1028400042EB06015EEA430E08BF20EAD37070BD7A
:10285000C4F10C04C4F1200500FA04F320FA05F0D9
:1028600001FA04F240EA020001F0004110EBD370DB
:1028700041F100015EEA430E08BF20EAD37070BD4B
:10288000C4F1200500FA05F24EEA020E20FA04F324
:1028900001FA05F243EA020321FA04F001F00041D3
:1028A00021FA04F220EA020000EBD3705EEA430E44
:1028B00008BF20EAD37070BD94F0000F0FD101F073
:1028C0000046400041EB010111F4801F08BF013CAC
:1028D000F7D041EA060195F0000F18BF704703F0EA
:1028E0000046520043EB030313F4801F08BF013D71
:1028F000F7D043EA0603704794EA0C0F0CEA13552D
:1029000018BF95EA0C0F0CD050EA410618BF52EAE6
:102910004306D1D181EA030101F000414FF00000EC
:1029200070BD50EA410606BF1046194652EA4306FA
:1029300019D094EA0C0F02D150EA013613D195EA6E
:102940000C0F05D152EA03361CBF104619460AD1B6
:1029500081EA030101F0004141F0FE4141F47001C0
:102960004FF0000070BD41F0FE4141F4780170BDB0
:1029700070B54FF0FF0C4CF4E06C1CEA11541DBF15
:102980001CEA135594EA0C0F95EA0C0F00F0A7F817
:10299000A4EB050481EA030E52EA03354FEA013144
:1029A00000F088804FEA03334FF0805545EA131357
:1029B00043EA12634FEA022245EA111545EA10651F
:1029C0004FEA00260EF000419D4208BF964244F1B6
:1029D000FD0404F5407402D25B084FEA3202B61AD5
:1029E00065EB03055B084FEA32024FF480104FF4A9
:1029F000002CB6EB020E75EB030E22BFB61A75461D
:102A000040EA0C005B084FEA3202B6EB020E75EBAF
:102A1000030E22BFB61A754640EA5C005B084FEA17
:102A20003202B6EB020E75EB030E22BFB61A7546E4
:102A300040EA9C005B084FEA3202B6EB020E75EBEF
:102A4000030E22BFB61A754640EADC0055EA060EB0
:102A500018D04FEA051545EA16754FEA06164FEAF3
:102A6000C30343EA52734FEAC2025FEA1C1CC0D19F
:102A700011F4801F0BD141EA00014FF000004FF02C
:102A8000004CB6E711F4801F04BF01430020B4F1ED
:102A9000FD0C88BFBCF5E06F3FF6AFAEB5EB030CA5
:102AA00004BFB6EB020C5FEA500C50F1000041EBA2
:102AB000045170BD0EF0004E4EEA113114EB5C046F
:102AC000C2BFD4EB0C0541EA045170BD41F4801142
:102AD0004FF0000E013C90E645EA060E8DE60CEA4A
:102AE000135594EA0C0F08BF95EA0C0F3FF43BAF67
:102AF00094EA0C0F0AD150EA01347FF434AF95EA1E
:102B00000C0F7FF425AF104619462CE795EA0C0F01
:102B100006D152EA03353FF4FDAE1046194622E7CE
:102B200050EA410618BF52EA43067FF4C5AE50EAA8
:102B300041047FF40DAF52EA43057FF4EBAE12E798
:102B40004FF0FF3C06E000BF4FF0010C02E000BF79
:102B50004FF0010C4DF804CD4FEA410C7FEA6C5C5C
:102B60004FEA430C18BF7FEA6C5C1BD001B050EAFF
:102B7000410C0CBF52EA430C91EA030F02BF90EAEA
:102B8000020F0020704710F1000F91EA030F58BFA9
:102B9000994208BF90422CBFD8176FEAE37040F00B
:102BA000010070474FEA410C7FEA6C5C02D150EAA9
:102BB000013C07D14FEA430C7FEA6C5CD6D152EA64
:102BC000033CD3D05DF8040B704700BF8446104629
:102BD00062468C461946634600E000BF01B5FFF728
:102BE000B7FF002848BF10F1000F01BD4DF808EDF8
:102BF000FFF7F4FF0CBF012000205DF808FB00BFC9
:102C00004DF808EDFFF7EAFF34BF012000205DF822
:102C100008FB00BF4DF808EDFFF7E0FF94BF01206F
:102C200000205DF808FB00BF4DF808EDFFF7CEFF70
:102C300094BF012000205DF808FB00BF4DF808EDAF
:102C4000FFF7C4FF34BF012000205DF808FB00BF80
:102C50004FEA410C7FEA6C5C02D150EA013C0AD198
:102C60004FEA430C7FEA6C5C02D152EA033C02D18A
:102C70004FF0000070474FF0010070474FEA4102EB
:102C800012F5001215D211D56FF47873B3EB6252BE
:102C900012D94FEAC12343F0004343EA505311F0E5
:102CA000004F23FA02F018BF404270474FF0000077
:102CB000704750EA013005D111F0004008BF6FF0B5
:102CC000004070474FF00000704700BF4A0011D22B
:102CD00012F5001211D20DD56FF47873B3EB625276
:102CE0000ED44FEAC12343F0004343EA505323FA82
:102CF00002F070474FF00000704750EA013002D1F7
:102D00004FF0FF3070474FF0000070474FEA41022C
:102D1000B2F1E04324BFB3F5001CDCF1FE5C0DD939
:102D200001F0004C4FEAC0024CEA5070B2F1004F83
:102D300040EB830008BF20F00100704711F0804F86
:102D400021D113F13872BCBF01F00040704741F44B
:102D500080114FEA5252C2F11802C2F1200C10FA4F
:102D60000CF320FA02F018BF40F001004FEAC12333
:102D70004FEAD32303FA0CFC40EA0C0023FA02F3D7
:102D80004FEA4303CCE77FEA625307D150EA0133AD
:102D90001EBF4FF0FE4040F44000704701F000407D
:102DA00040F0FE4040F40000704700BF80F000405B
:102DB00002E000BF81F0004142001FBF5FEA410313
:102DC00092EA030F7FEA226C7FEA236C6AD04FEA13
:102DD0001262D2EB1363C1BFD21841404840414058
:102DE000B8BF5B42192B88BF704710F0004F40F40A
:102DF000000020F07F4018BF404211F0004F41F426
:102E0000000121F07F4118BF494292EA030F3FD0F1
:102E1000A2F1010241FA03FC10EB0C00C3F1200304
:102E200001FA03F100F0004302D5494260EB400093
:102E3000B0F5000F13D3B0F1807F06D340084FEAFE
:102E4000310102F10102FE2A51D2B1F1004F40EBF3
:102E5000C25008BF20F0010040EA0300704749005B
:102E600040EB0000013A28BFB0F5000FEDD2B0FAF8
:102E700080FCACF1080CB2EB0C0200FA0CF0AABF1B
:102E800000EBC25052421843BCBFD04018437047B9
:102E900092F0000F81F4000106BF80F400000132BF
:102EA000013BB5E74FEA41037FEA226C18BF7FEA96
:102EB000236C21D092EA030F04D092F0000F08BFD8
:102EC0000846704790EA010F1CBF0020704712F0BF
:102ED0007F4F04D1400028BF40F00040704712F1FE
:102EE00000723CBF00F50000704700F0004343F063
:102EF000FE4040F4000070477FEA226216BF084699
:102F00007FEA23630146420206BF5FEA412390EA5B
:102F1000010F40F4800070474FF0000304E000BF51
:102F200010F0004348BF40425FEA000C08BF704702
:102F300043F0964301464FF000001CE050EA0102C6
:102F400008BF70474FF000030AE000BF50EA0102DB
:102F500008BF704711F0004302D5404261EB4101C8
:102F60005FEA010C02BF84460146002043F0B643ED
:102F700008BFA3F18053A3F50003BCFA8CF2083A12
:102F8000A3EBC25310DB01FA02FC634400FA02FC1B
:102F9000C2F12002BCF1004F20FA02F243EB020022
:102FA00008BF20F00100704702F1200201FA02FC84
:102FB000C2F1200250EA4C0021FA02F243EB020077
:102FC00008BF20EADC7070474FF0FF0C1CEAD052BB
:102FD0001EBF1CEAD15392EA0C0F93EA0C0F6FD07C
:102FE0001A4480EA010C400218BF5FEA41211ED05A
:102FF0004FF0006343EA501043EA5111A0FB013146
:103000000CF00040B1F5000F3EBF490041EAD3711A
:103010005B0040EA010062F17F02FD2A1DD8B3F196
:10302000004F40EBC25008BF20F00100704790F005
:10303000000F0CF0004C08BF49024CEA502040EA57
:1030400051207F3AC2BFD2F1FF0340EAC25070471D
:1030500040F400004FF00003013A5DDC12F1190F5B
:10306000DCBF00F000407047C2F10002410021FACD
:1030700002F1C2F1200200FA02FC5FEA310040F1E5
:10308000000053EA4C0308BF20EADC70704792F05E
:10309000000F00F0004C02BF400010F4000F013A96
:1030A000F9D040EA0C0093F0000F01F0004C02BF91
:1030B000490011F4000F013BF9D041EA0C018FE700
:1030C0000CEAD15392EA0C0F18BF93EA0C0F0AD006
:1030D00030F0004C18BF31F0004CD8D180EA01002C
:1030E00000F00040704790F0000F17BF90F0004FC5
:1030F000084691F0000F91F0004F14D092EA0C0FA7
:1031000001D142020FD193EA0C0F03D14B0218BF39
:10311000084608D180EA010000F0004040F0FE407F
:1031200040F40000704740F0FE4040F4400070471B
:103130004FF0FF0C1CEAD0521EBF1CEAD15392EA9A
:103140000C0F93EA0C0F69D0A2EB030280EA010C8A
:1031500049024FEA402037D04FF0805343EA111123
:1031600043EA10130CF000408B4238BF5B0042F181
:103170007D024FF4000C8B4224BF5B1A40EA0C0026
:10318000B3EB510F24BFA3EB510340EA5C00B3EB58
:10319000910F24BFA3EB910340EA9C00B3EBD10F46
:1031A00024BFA3EBD10340EADC001B0118BF5FEA98
:1031B0001C1CE0D1FD2A3FF650AF8B4240EBC250C1
:1031C00008BF20F0010070470CF0004C4CEA502082
:1031D0007F32C2BFD2F1FF0340EAC250704740F4D1
:1031E00000004FF00003013A37E792F0000F00F0C3
:1031F000004C02BF400010F4000F013AF9D040EA41
:103200000C0093F0000F01F0004C02BF490011F4D4
:10321000000F013BF9D041EA0C0195E70CEAD153CC
:1032200092EA0C0F08D142027FF47DAF93EA0C0FB3
:103230007FF470AF084676E793EA0C0F04D14B0297
:103240003FF44CAF08466EE730F0004C18BF31F049
:10325000004CCAD130F000427FF45CAF31F0004343
:103260007FF43CAF5FE700BF002301461A461846D3
:1032700000F042B80A44914200F1FF3300D1704798
:1032800010B511F8014B914203F8014FF9D110BD6F
:1032900003460244934200D1704703F8011BF9E74B
:1032A00038B50D4B04461D68AB6B7BB91820FEF793
:1032B000DBF90A4A0A4BA863C0E90023094B012243
:1032C00083600B2383810023C0E904230022AB6BBE
:1032D0001C615A6138BD00BF1C0400200E33CDAB09
:1032E00034126DE6ECDE0500034613F8012B002ACC
:1032F000FBD1181A013870472DE9F843DFF8BC807C
:103300000646D8F800001F460D46914600F058F8D2
:10331000264B1C6834B9264C1C60264B13B11B6825
:10332000C4F8883063681F2B07DDD8F8000000F070
:1033300049F84FF0FF30BDE8F8835EB3D4F8880059
:1033400088B91D4B23B9D8F8000000F03AF8F0E72F
:103350004FF48470FEF788F90028F4D00023C0E908
:103360004033C4F8880001226368022E40F823909D
:1033700002FA03F200EB8301D0F8003143EA0203C2
:10338000C0F80031C1F8807002BFD0F804311A4390
:10339000C0F804216368D8F800005A1C0233626048
:1033A00044F8235000F00EF80020C4E75006002037
:1033B000C40500200000000069160A0880040020EF
:1033C000704770477047000021000A0861000A0832
:1033D00089000A088D000A08000000004261747428
:1033E0006572792074657374657220004375746F1B
:1033F00066663A200041303A200020280056290015
:1034000054696D653A20004176673A2000562C20B9
:10341000006D41006D41683A20006D57683A200008
:103420000000000000000000B9090A088D0A0A081F
:1034300071110A080D180A08BD090A08950E0A0834
:10344000C5070A08D9050A08510F0A08EF0F0A082C
:1034500027100A0843100A0800000000003E5B4FD6
:103460005B3E3E6B4F6B3E1C3E7C3E1C183C7E3CE4
:10347000181C577D571C1C5E7F5E1C00183C1800F2
:10348000FFE7C3E7FF0018241800FFE7DBE7FF3082
:10349000483A060E2629792926407F050507407FF0
:1034A00005253F5A3CE73C5A7F3E1C1C08081C1C63
:1034B0003E7F14227F22145F5F005F5F06097F0159
:1034C0007F006689956A606060606094A2FFA29444
:1034D00008047E040810207E201008082A1C080812
:1034E0001C2A08081E101010100C1E0C1E0C303860
:1034F0003E3830060E3E0E06000000000000005F61
:1035000000000007000700147F147F14242A7F2A7C
:10351000122313086462364956205000080703003E
:10352000001C2241000041221C002A1C7F1C2A088A
:10353000083E0808008070300008080808080000ED
:1035400060600020100804023E5149453E00427F61
:10355000400072494949462141494D331814127FB0
:103560001027454545393C4A494931412111090750
:103570003649494936464949291E000014000000D1
:1035800040340000000814224114141414140041A3
:1035900022140802015909063E415D594E7C121160
:1035A000127C7F494949363E414141227F41414198
:1035B0003E7F494949417F090909013E4141517313
:1035C0007F0808087F00417F41002040413F017F84
:1035D000081422417F404040407F021C027F7F044C
:1035E00008107F3E4141413E7F090909063E415195
:1035F000215E7F09192946264949493203017F0185
:10360000033F4040403F1F2040201F3F4038403F85
:10361000631408146303047804036159494D43009B
:103620007F4141410204081020004141417F0402D2
:103630000102044040404040000307080020545469
:1036400078407F2844443838444444283844442847
:103650007F385454541800087E090218A4A49C789A
:103660007F0804047800447D40002040403D007FF6
:103670001028440000417F40007C047804787C08D6
:103680000404783844444438FC18242418182424AA
:1036900018FC7C08040408485454542404043F448F
:1036A000243C4040207C1C2040201C3C4030403CBE
:1036B00044281028444C9090907C4464544C44001E
:1036C0000836410000007700000041360800020182
:1036D0000204023C2623263C1EA1A161123A40406E
:1036E000207A3854545559215555794121545478EC
:1036F00041215554784020545579400C1E52721285
:10370000395555555939545454593955545458000C
:1037100000457C410002457D420001457C40F02986
:103720002429F0F0282528F07C54554500205454D5
:103730007C547C0A097F4932494949323248484819
:1037400032324A4848303A4141217A3A4240207860
:10375000009DA0A07D39444444393D4040403D3C5B
:1037600024FF2424487E4943662B2FFC2F2BFF097E
:1037700029F620C0887E0903205454794100004472
:103780007D413048484A32384040227A007A0A0A5D
:10379000727D0D19317D2629292F282629292926D0
:1037A00030484D4020380808080808080808382F15
:1037B00010C8ACBA2F102834FA00007B000008149F
:1037C0002A142222142A1408AA005500AAAA55AACB
:1037D00055AA000000FF00101010FF00141414FF81
:1037E000001010FF00FF1010F010F0141414FC0073
:1037F0001414F700FF0000FF00FF1414F404FC147D
:103800001417101F10101F101F1414141F00101075
:1038100010F0000000001F101010101F10101010EA
:10382000F010000000FF101010101010101010FF0A
:1038300010000000FF140000FF00FF00001F101721
:103840000000FC04F414141710171414F404F4000A
:1038500000FF00F714141414141414F700F71414D0
:1038600014171410101F101F141414F4141010F057
:1038700010F000001F101F0000001F14000000FCCB
:10388000140000F010F01010FF10FF141414FF14B7
:103890001010101F00000000F010FFFFFFFFFFF0EE
:1038A000F0F0F0F0FFFFFF0000000000FFFF0F0F3F
:1038B0000F0F0F38444438447C2A2A3E147E0202FB
:1038C0000606027E027E0263554941633844443C49
:1038D00004407E201E2006027E020299A5E7A599DB
:1038E0001C2A492A1C4C7201724C304A4D4D303012
:1038F00048784830BC625A463D3E494949007E01FD
:1039000001017E2A2A2A2A2A44445F444440514A1B
:10391000444040444A51400000FF0103E080FF0062
:103920000008086B6B083612362436060F090F069E
:10393000000018180000001010003040FF010100C6
:103940001F01011E00191D1712003C3C3C3C0000E9
:103950000000000000000000000000000000000067
:103960000000000071110A080D180A08A9000A08D1
:10397000950E0A08B90F0A08D50F0A08510F0A0850
:10398000EF0F0A0827100A0843100A080008101849
:10399000202830386E616E00696E66006F766600B2
:1039A0002E006170700025592D256D2D256454253C
:1039B000483A254D3A2553257A0061736374696D41
:1039C000650000000000000000000000411C0A0823
:1039D000311C0A08331C0A08000000000000000027
:1039E000FF1C0A08651D0A083D1D0A080D180A0873
:1039F0002F1D0A08011D0A08111D0A085F1D0A086B
:103A0000211D0A08F91C0A0800000000000000003F
:103A1000551E0A08BF1E0A089B1E0A080D180A0830
:103A20006B1E0A08871E0A08791E0A08951E0A08D6
:103A3000571E0A085D1E0A08000000000000000072
:103A4000751F0A08BF1F0A08971F0A08771F0A0870
:103A50009F1F0A08A71F0A08AF1F0A08B71F0A08F6
:103A60000000000000000000AF200A08A5200A089E
:103A70009B200A0819200A08491A0A088F200A08F8
:103A80000D210A0815210A0883200A087B200A084C
:103A900071200A0867200A0823200A080000000095
:103AA00000000000CD200A08D7200A08E1200A08FB
:103AB000EB200A08F5200A0801210A080D210A084E
:103AC00015210A081D210A0829210A0831210A089E
:103AD0003B210A0845210A080000000075050A0874
:103AE000E9170A08551A0A08651A0A08C51A0A08C1
:103AF000B9200A0895210A0805230A0800000000D9
:043B000000000000C1
:103B0400D90400000000CF43000103070F1F3F7FCB
:103B14000080C0E0F0F8FCFE00000000000000009F
:103B24000000000000000000000000000000000091
:103B34000000000000000000000000000000000081
:103B44000000000000000000000000000000000071
:103B540000000000000000808080000000000000E1
:103B64000000000000000000008080C0C0000000D1
:103B74000000000000000000000000000000000041
:103B84000000000000000000000000000000000031
:103B94000000000000000000000000000000000021
:103BA40000000000000000000000000080C0E0F001
:103BB400F8FCF8E000000000000000000000000035
:103BC4000000000000808080808000808000000071
:103BD40000808080808000FFFFFF00000000808064
:103BE400808000008080000080FFFF808000808053
:103BF40000808080800080800000000000808000C1
:103C0400008C8E84000080F8F8F88000000000002A
:103C14000000000000000000F0F0F0F0F0F0F0F020
:103C2400F0F0F0F0E0E0C08000E0FCFEFFFFFF7F7A
:103C3400FFFFFFFFFF000000000000000000000085
:103C4400000000FEFFC70101010183FFFF00007CAB
:103C5400FEC70101010183FFFFFF0038FEC7830196
:103C6400010183C7FFFF000001FFFF010100FFFF07
:103C74000701010100007FFF80000000FFFF7F00BB
:103C840000FFFFFF000001FFFFFF01000000000034
:103C94000000000000000000030F3F7F7FFFFFFFD4
:103CA400FFFFFFFFE7C7C78F8F9FBFFFFFC3C0F0B2
:103CB400FFFFFFFFFFFCFCFCFCFCFCFCFCF8F8F045
:103CC400F0E0C00001030303030301030300000049
:103CD40000010303030301010301000000010303C6
:103CE40003030101030300000003030000000303B6
:103CF40000000000000000010303030303010000AF
:103D040000010301000000030301000000000000A3
:103D1400000000000000000000000080C0E0F0F996
:103D2400FFFFFFFFFF3F1F0F87C7F7FFFF1F1F3D69
:103D3400FCF8F8F8F87C7DFFFFFFFFFFFFFFFF7F33
:103D44003F0F0700303000000000000000000000BA
:103D5400000000000000000000000000FEFEFC0067
:103D6400000000000000000000000000000000004F
:103D74000000000000E0C00000000000000000009F
:103D840000003030000000000000000000000000CF
:103D9400000000000000000000C0FEFFFFFFFFFF66
:103DA400FFFFFFFF7F7F3F1F0F071F7FFFFFF8F815
:103DB400FFFFFFFFFFFEF8E000000001000000002D
:103DC40000000000FEFE000000FCFEFC0C06060ED7
:103DD400FCF80000F0F81C0E0606060CFFFFFF00BE
:103DE40000FEFE00000000FCFEFC00183C7E66E6BF
:103DF400CE84000006FFFF0606FCFEFC0C06060649
:103E04000000FEFE0000C0F8FC4E4646464E7C789C
:103E140040183C76E6CECC80000000000000000094
:103E240000000000000000000000000001070F1F58
:103E34001F3F3F3F3F1F0F03000000000000000032
:103E4400000000000F0F0000000F0F0F0000000023
:103E54000F0F000003070E0C18180C060F0F0F00AD
:103E640000010F0E0C180C0F070100040E0C180CA7
:103E74000F070000000F0F00000F0F0F00000000DD
:103E840000000F0F00000007070C0C181C0C06069E
:103E940000040E0C180C0F070000000000000000C6
:103EA400000000000000000000000000000000000E
:103EB40000000000000000000000000000000000FE
:103EC40000000000000000000000000000000000EE
:103ED40000000000000000000000000000000000DE
:103EE40000000000000000000000000000000000CE
:103EF40000000000000000000000000000000000BE
:103F040000000000000000000000000000000000AD
:103F14000000000000000000BA390A082004002054
:103F2400000000000000000000000000000000008D
:103F3400000000000000000000000000000000007D
:103F4400000000000000000000000000000000006D
:103F5400000000000000000000000000000000005D
:103F6400000000000000000000000000000000004D
:103F7400000000000000000000000000000000003D
:043F840055060020BE
:103F8800FFFFFFFF00000102030405060708090AF6
:103F98000B0C0D0E0F101112131415161718191AF1
:083FA8001B1C1D1E1F20280038
:043FB00078563412F9
:04000005080A0020C5
:00000001FF
